:100000000C9445000C9462000C9462000C94620005
:100010000C9462000C9462000C9462000C946200D8
:100020000C9462000C9462000C9462000C946200C8
:100030000C9462000C9462000C9462000C946200B8
:100040000C9462000C9462000C9462000C946200A8
:100050000C9462000C9462000C9462000C94620098
:100060000C9462000C946200DF00C000E100C2004A
:10007000C400C600C800CA00CC00CE00D000D20028
:10008000D400D600D800DA00DC0011241FBECFEF68
:10009000D8E0DEBFCDBF11E0A0E0B1E0E6E5FEE0D4
:1000A00002C005900D92A231B107D9F721E0A2E17B
:1000B000B1E001C01D92AC31B207E1F70E94E3004C
:1000C0000C9429070C9400008AB1806F8AB98BB117
:1000D000806F8BB984B1807F84B985B18F6085B919
:1000E0000895189B08C0199B08C01A9B08C01B9B49
:1000F00008C080E0089581E0089582E0089583E0DB
:10010000089584E008950F931F93CF93DF93C0E089
:10011000D0E000E810E08BB1806F8BB99BB1980103
:100120000C2E02C0359527950A94E2F7822F809510
:1001300089238BB98FE99FE00197F1F700C0000098
:100140000E947100882339F00E9471008F5BCC0FF0
:10015000CC0F8C0F05C02196C430D105E1F681E4A7
:10016000DF91CF911F910F91089590E0FC01E15430
:10017000F109E131F10510F5EC5CFF4F0C94A2029E
:100180008FE208958DE208958BE208958DE308953E
:1001900083E0089586E0089589E0089580E0089559
:1001A00082E0089585E0089588E0089583E4089545
:1001B00081E0089584E0089587E00895089581E43A
:1001C00008958AE208950E94640060E875E280E084
:1001D00090E00E943302912C00E010E0E12CF12C21
:1001E000C0E088248394D0E00F2EFFE0AF2EF1E032
:1001F000BF2EF02D612C712C0F2EF6E0CF2EF1E0EA
:10020000DF2EF02D07C0CD2F05C0CD2F03C0CD2F81
:1002100001C0CD2FCC2309F4D2C00E9483008134C9
:10022000C9F38FE99FE00197F1F700C000000E9439
:100230008300813479F30E9483000E94B5008A30E4
:10024000D0F40E9483000E94B500805D0E942B02C2
:10025000C801880F991F000F111F000F111F000FF9
:10026000111F080F191F0E9483000E94B500080F7C
:10027000111DCD2FCFCF0E9483000E94B5008D327B
:1002800039F020F48A52823040F502C08F3229F5CD
:10029000992009F4A7C09DE3991609F4BFC088E02E
:1002A0000E942B020E9483000E94B5000E942B0234
:1002B0000E9483000E94B5008D3291F128F48A5289
:1002C000823008F0A0CF2CC08D3389F1833409F43B
:1002D00069C08F3209F097CF23C00E9483000E942B
:1002E000B5000E942B020E9483000E94B5008D324F
:1002F00071F028F48A52823008F087CF08C08D331D
:10030000B1F0833409F44EC08F3209F07ECF9110E2
:1003100007C07801062D172D03C07801062D172D73
:100320000E9483000E94B500982ECD2F73CF8BE2E0
:10033000981669F0891520F09AE2991671F01BC0A1
:100340008DE2981639F09FE2991681F014C0E00E04
:10035000F11E11C0E01AF10A0EC0C701809F7001A2
:10036000819FF00C909FF00C112405C0C701B801CB
:100370000E946C027B01FF92EF92FF92EF92DF925C
:10038000CF920E9407030E9483000E94B500982E1E
:100390000F900F900F900F900F900F90062D172D2C
:1003A000CD2F38CFBF92AF920E9407030F900F90CE
:1003B0009D2E062D172DE12CF12CCD2F2BCF0E9439
:1003C0008300813409F026CF8FE99FE00197F1F790
:1003D00000C000000E948300C82D813409F41ACFA8
:1003E000CD2F18CF0E9483000E94B5000E942B02DF
:1003F0000E9483000E94B5008D3209F48ECF28F44C
:100400008A52823008F003CF88CF8D3309F48FCF22
:10041000833441F28F3209F0FACE7FCF0E948300FD
:100420000E94B5000E942B020E9483000E94B5002A
:100430008D3209F475CF28F48A52823008F0E9CE63
:100440006FCF8D3309F497CF833409F4ABCF8F325C
:1004500009F0DFCE65CFE0ECF0E0908195FFFDCFB5
:100460008093C6000895CF92DF92EF92FF926B01C6
:100470007C0160E070E08BE292E00E94BC02E1EC63
:10048000F0E0808188698083E2ECF0E08081866022
:10049000808360E472E48FE090E0A70196010E94FF
:1004A0008002DA01C9010197A109B109892F9A2FA8
:1004B000AB2FBB278093C50021502093C4008091AF
:1004C000C6008FE99FE00197F1F700C00000FF90A0
:1004D000EF90DF90CF90089597FB072E16F40094CD
:1004E00007D077FD09D00E94A80207FC05D03EF492
:1004F000909581959F4F0895709561957F4F0895D0
:10050000A1E21A2EAA1BBB1BFD010DC0AA1FBB1F17
:10051000EE1FFF1FA217B307E407F50720F0A21B89
:10052000B30BE40BF50B661F771F881F991F1A94F6
:1005300069F760957095809590959B01AC01BD0120
:10054000CF010895EE0FFF1F0590F491E02D09945F
:10055000AA1BBB1B51E107C0AA1FBB1FA617B707E9
:1005600010F0A61BB70B881F991F5A95A9F7809505
:100570009095BC01CD0108950F931F93CF93DF9306
:10058000009731F46115710519F480E090E03AC0EC
:100590008B01EC016EE070E081E090E00E94FE04CF
:1005A000FC01892B91F380E883830115110571F01B
:1005B0001387028781E88383809112019091130150
:1005C000892B21F4F0931301E09312012097C9F0D5
:1005D000D187C08783818260838380911401909149
:1005E0001501892B71F4F0931501E09314018091AA
:1005F000160190911701892B21F4F0931701E093D4
:100600001601CF01DF91CF911F910F910895A0E0C6
:10061000B0E0EDE0F3E00C940207AE014B5F5F4FFA
:10062000FA0161917191AF018091140190911501CE
:100630000E941D03E2E00C941E07ABE0B0E0E3E291
:10064000F3E00C94F2066C017B018A01FC01178235
:100650001682838181FFCCC1CE0101963C01F60157
:100660009381F70193FD859193FF81917F01882309
:1006700009F4BAC1853239F493FD859193FF8191D4
:100680007F01853229F4B60190E00E945806E7CF39
:10069000912C212C312CFFE1F315D8F08B3279F01D
:1006A00038F4803279F08332A1F4232D20611DC00B
:1006B0008D3261F0803369F4232D216016C0832DC3
:1006C0008260382EE32DE4603E2E2AC0F32DF860C0
:1006D0001DC037FC2DC020ED280F2A3040F08E328F
:1006E000B9F436FC81C1232D2064322E19C036FEA8
:1006F00006C08AE0989E200D1124922E11C0EAE0D7
:100700002E9E200D1124222EF32DF0623F2E08C0C4
:100710008C3621F4832D8068382E02C0883641F44F
:10072000F70193FD859193FF81917F018111B3CFF3
:10073000982F9F7D9554933028F40C5F1F4F9FE3B3
:1007400099830DC0833631F0833771F0833509F01A
:1007500059C021C0F801808189830E5F1F4F882412
:100760008394912C530113C02801F2E04F0E511CC9
:10077000F801A080B18036FE03C0692D70E002C090
:100780006FEF7FEFC5010E944D064C018201F32DF2
:10079000FF773F2E16C0280122E0420E511CF801BF
:1007A000A080B18036FE03C0692D70E002C06FEFFB
:1007B0007FEFC5010E943B064C01F32DF0683F2EF0
:1007C000820133FC1BC0822D90E088169906B0F49C
:1007D000B60180E290E00E9458062A94F4CFF50119
:1007E00037FC859137FE81915F01B60190E00E9450
:1007F000580621102A9421E0821A9108811491044C
:1008000071F7E8C0843611F0893641F5F80137FEFA
:1008100007C060817181828193810C5F1F4F08C086
:1008200060817181072E000C880B990B0E5F1F4FA2
:10083000F32DFF763F2E97FF09C090958095709518
:1008400061957F4F8F4F9F4FF0683F2E2AE030E039
:10085000A3010E949406882E861845C0853731F47E
:10086000232D2F7EB22E2AE030E025C0932D997FD4
:10087000B92E8F36C1F018F4883579F0B5C08037BD
:1008800019F0883721F0B0C0E92FE061BE2EB4FE28
:100890000DC0FB2DF460BF2E09C034FE0AC0292F05
:1008A0002660B22E06C028E030E005C020E130E02E
:1008B00002C020E132E0F801B7FE07C0608171811B
:1008C000828193810C5F1F4F06C06081718180E03F
:1008D00090E00E5F1F4FA3010E949406882E861899
:1008E000FB2DFF773F2E36FE0DC0232D2E7FA22E2F
:1008F000891458F434FE0BC032FC09C0832D8E7E5F
:10090000A82E05C0B82CA32C03C0B82C01C0B92C4C
:10091000A4FE0FC0FE01E80DF11D8081803321F49B
:100920009A2D997EA92E09C0A2FE06C0B394B39455
:1009300004C08A2D867809F0B394A3FC11C0A0FEF0
:1009400006C0B21488F4280C922C9B180EC0B21466
:1009500060F4B60180E290E00E945806B394F7CFAD
:10096000B21418F42B1802C0982C212CA4FE10C02D
:10097000B60180E390E00E945806A2FE17C0A1FCD9
:1009800003C088E790E002C088E590E0B6010CC0A3
:100990008A2D867859F0A1FE02C08BE201C080E268
:1009A000A7FC8DE2B60190E00E945806891438F445
:1009B000B60180E390E00E9458069A94F7CF8A949B
:1009C000F301E80DF11D8081B60190E00E94580608
:1009D0008110F5CF222009F442CEB60180E290E0EA
:1009E0000E9458062A94F6CFF6018681978102C0AC
:1009F0008FEF9FEF2B96E2E10C940E070F931F935E
:100A0000CF93DF93869F8001879F100D969F100DD7
:100A10001124C8010E941A05EC01009729F0A801D1
:100A200060E070E00E944606CE01DF91CF911F91F9
:100A30000F9108950F931F93CF93DF938230910509
:100A400010F482E090E0E0911A01F0911B0120E0A7
:100A500030E0A0E0B0E0309719F14081518102818F
:100A6000138148175907C8F08417950769F4109740
:100A700031F012960C93129713961C9327C0009393
:100A80001A0110931B0122C02115310519F04217DC
:100A9000530718F49A01BD01EF01DF01F801DBCF24
:100AA00021153105F9F0281B390B2430310580F46C
:100AB0008A819B816115710521F0FB0193838283FB
:100AC00004C090931B0180931A01FE01329644C02A
:100AD000FE01E20FF31F8193919322503109398374
:100AE00028833AC02091180130911901232B41F439
:100AF00020910201309103013093190120931801D4
:100B000020910001309101012115310541F42DB7EB
:100B10003EB74091040150910501241B350BE09133
:100B20001801F0911901E217F307A0F42E1B3F0BF7
:100B30002817390778F0AC014E5F5F4F241735074F
:100B400048F04E0F5F1F5093190140931801819395
:100B5000919302C0E0E0F0E0CF01DF91CF911F91CF
:100B60000F910895CF93DF93009709F481C0FC01A2
:100B7000329713821282A0911A01B0911B01109733
:100B800081F420813181820F931F209118013091CF
:100B900019012817390751F5F0931901E09318014D
:100BA00067C0ED0120E030E0CE17DF0740F44A8156
:100BB0005B819E0141155105F1F0EA01F5CFD38328
:100BC000C28340815181840F951FC817D90759F4FA
:100BD00088819981840F951F0296918380838A81F1
:100BE0009B81938382832115310529F4F0931B01A6
:100BF000E0931A013DC0E901FB83EA8349915991D1
:100C0000C40FD51FEC17FD0761F480819181840F1B
:100C1000951F0296E90199838883828193819B8342
:100C20008A83E0E0F0E012968D919C9113970097F3
:100C300019F0FD01DC01F7CF8D919C9111979D0179
:100C40002E5F3F4F820F931F2091180130911901A1
:100C50002817390769F4309729F410921B01109274
:100C60001A0102C013821282B0931901A0931801D5
:100C7000DF91CF910895FC01059061507040011003
:100C8000D8F7809590958E0F9F1F0895DC0101C0C5
:100C90006D9341505040E0F70895FC016150704061
:100CA00001900110D8F7809590958E0F9F1F0895A1
:100CB0000F931F93CF93DF93FB01238121FD03C08B
:100CC0008FEF9FEF2CC022FF16C0468157812481F1
:100CD00035814217530744F4A081B1819D012F5FF4
:100CE0003F4F318320838C93268137812F5F3F4F85
:100CF0003783268314C08B01EC01FB010084F1854E
:100D0000E02D0995892BE1F6D80116968D919C91DD
:100D10001797019617969C938E931697CE01DF91A5
:100D2000CF911F910F910895FA01AA27283051F110
:100D3000203181F1E8946F936E7F6E5F7F4F8F4F0C
:100D40009F4FAF4FB1E03ED0B4E03CD0670F781F6B
:100D5000891F9A1FA11D680F791F8A1F911DA11D50
:100D60006A0F711D811D911DA11D20D009F4689489
:100D70003F912AE0269F11243019305D3193DEF631
:100D8000CF010895462F4770405D4193B3E00FD0E7
:100D9000C9F7F6CF462F4F70405D4A3318F0495DD2
:100DA00031FD4052419302D0A9F7EACFB4E0A695B5
:100DB0009795879577956795BA95C9F700976105D7
:100DC000710508959B01AC010A2E0694579547952D
:100DD00037952795BA95C9F7620F731F841F951F22
:100DE000A01D08952F923F924F925F926F927F9233
:100DF0008F929F92AF92BF92CF92DF92EF92FF922B
:100E00000F931F93CF93DF93CDB7DEB7CA1BDB0BD6
:100E10000FB6F894DEBF0FBECDBF09942A8839887B
:100E200048885F846E847D848C849B84AA84B98482
:100E3000C884DF80EE80FD800C811B81AA81B9818E
:100E4000CE0FD11D0FB6F894DEBF0FBECDBFED01A2
:060E50000895F894FFCFA5
:100E560000001C0120002564200A0A0D2564000AF2
:020E66000D007D
:00000001FF
